:100004000C9400000C9400000C9400000C9400006C
:100014000C9400000C9400000C9400000C9400005C
:100024000C9400000C9400000C9460020C940000EA
:100034000C9400000C9400000C9400000C9400003C
:100044000C9400000C9400000C9400000C9400002C
:100054000C94A6020C9400000C9400000C94000074
:100064000C94000000000000295C8F3C295C0F3DCB
:10007400F4FD543D4DF38E3D0E2DB23D3D0AD73D6A
:1000840023DBF93D04560E3E77BE1F3E0E2D323E55
:100094008195433EF4FD543E6666663ED9CE773E76
:1000A400A69B843EDF4F8D3E0681953E3F359E3EA6
:1000B40079E9A63EA01AAF3EC74BB73E0000C03E4A
:1000C4002731C83E4E62D03E7593D83E8941E03E0A
:1000D400B072E83EC520F03EEC51F83E0000003F0F
:1000E4000AD7033F14AE073F1F850B3FA01A0F3FEB
:1000F400AAF1123F2B87163FAC1C1A3F2DB21D3FAD
:100104002506213FA69B243F9EEF273F96432B3F86
:100114008D972E3F85EB313FF4FD343F6210383F1D
:10012400D1223B3F3F353E3FAE47413F9318443FCA
:1001340079E9463F5EBA493F448B4C3FA01A4F3F92
:10014400FCA9513F5839543FB4C8563F8716593F0C
:100154005A645B3F2DB25D3F0000603F4A0C623F32
:100164009318643FDD24663F9EEF673FE7FB693FDA
:10017400A8C66B3FDF4F6D3FA01A6F3FD7A3703FF8
:100184000E2D723FBC74733F6ABC743F1904763FF2
:10019400C74B773FEC51783F1058793F355E7A3F33
:1001A4005A647B3FF6287C3F91ED7C3FA4707D3FF1
:1001B4003F357E3F52B87E3FDBF97E3FEE7C7F3F8A
:1001C40077BE7F3F77BE7F3F0000803F0000803FC7
:1001D4000000803F77BE7F3F77BE7F3FEE7C7F3F4E
:1001E400DBF97E3F52B87E3F3F357E3FA4707D3FB2
:1001F40091ED7C3FF6287C3F5A647B3F355E7A3F25
:100204001058793FEC51783FC74B773F1904763F3C
:100214006ABC743FBC74733F0E2D723FD7A3703F0A
:10022400A01A6F3FDF4F6D3FA8C66B3FE7FB693FE6
:100234009EEF673FDD24663F9318643F4A0C623F9C
:100244000000603F2DB25D3F5A645B3F8716593F03
:10025400B4C8563F5839543FFCA9513FA01A4F3FE8
:10026400448B4C3F5EBA493F79E9463F9318443F7B
:10027400AE47413F3F353E3FD1223B3F6210383FBE
:10028400F4FD343F85EB313F8D972E3F96432B3F52
:100294009EEF273FA69B243F2506213F2DB21D3FFD
:1002A400AC1C1A3F2B87163FAAF1123FA01A0F3F2E
:1002B4001F850B3F14AE073F0AD7033F0000003FE2
:1002C400EC51F83EC520F03EB072E83E8941E03E74
:1002D4007593D83E4E62D03E2731C83E0000C03EE2
:1002E400C74BB73EA01AAF3E79E9A63E3F359E3EC6
:1002F4000681953EDF4F8D3EA69B843ED9CE773E48
:100304006666663EF4FD543E8195433E0E2D323EB4
:1003140077BE1F3E04560E3E23DBF93D3D0AD73D12
:100324000E2DB23D4DF38E3DF4FD543D295C0F3D41
:10033400295C8F3C00000000000000000000FF006A
:1003440000640600030040030000F894EE27EFBBAE
:10035400F1E0F5BFE5BF8DE0A2E0BB27ED938A9500
:10036400E9F780E098E0A0E0B1E0ED930197E9F7C8
:10037400E6E4F3E085919591009761F0A591B5913C
:1003840005901590BF01F00105900D920197E1F7DA
:10039400FB01F0CFE0E0EEBBEFEFEDBFE8E0EEBF36
:1003A400C0E0D3E00C94EE02E0E0E4BDE5BDE7BDBF
:1003B400E8BDE0938000E0938100E0938900E0933E
:1003C4008800E4E0E0936F00E0E0E093B000E093A5
:1003D400B100E093B300E093B4000895E5DFE0E6F4
:1003E400EBB9E8E0E5B90895AA931A930A93EA8170
:1003F400F0E0A8E6B0E80E941F048F011093890082
:10040400E09388001981088123960895AA931A938A
:1004140010E010E0153BF8F4E12FF0E0EB5FFC4F47
:10042400FF93EF93E12FA8E6B0E0F0E00E941404FC
:10043400EA0FFB1F0E943204A981BB278827992752
:100444000E943A040E94BE03AF91BF910E945703D9
:10045400EC931F5FDFCF18812FC0AA93A981C4DF5B
:10046400A881D4DFE0E0E0930203E0930303E09388
:100474000403E1EAE4BDE2E0E5BDE0E0E6BDE1E875
:10048400E093B000E2E0E093B100E0E0E093B2007A
:10049400E0938000E9E0E0938100E0E0E0938500F0
:1004A400E0938400E0938700E0938600E0916F007E
:1004B400E260E0936F00789422960895AA93EA93F9
:1004C400FA93EFB7EA93E0910203EF5FE09302033C
:1004D400A0910203A63B18F0E0E0E0930203E09150
:1004E4000203A6D0E7BDECE33E1610F4339411C02A
:1004F400E0910303EF5FE0930303A0910303A63BA2
:1005040018F0E0E0E0930303E091030391D0E0935B
:10051400B300E8E76E1610F4639410C0E09104038E
:10052400EF5FE0930403A0910403A63B18F0E0E01E
:10053400E0930403E09104037BD0E8BDE991EFBFAD
:10054400F991E991A9911895AA93BA93EA93EFB70F
:10055400EA93A42DB0E0A050BD4FE0917900EC9354
:10056400E1E0E41511F4442402C0E1E04E2EE42D50
:10057400E066E0937C00E0917A00E064E0937A0026
:10058400E991EFBFE991B991A9911895E0E8E09359
:100594006100E0E0E0936100E0E8E0BFECE3E093B9
:1005A4007E00E0E6E0937C00EBEEE0937A00E5E089
:1005B400E0937B00E0916F00E460E0936F00EFEF65
:1005C400E0938B00E0938A00E0E6EAB9E8E0E4B95E
:1005D4008A92A52D42DF0895D9DFA0910003A030AF
:1005E40021F0A0910103A03079F4A0910003A03080
:1005F40021F0A0910103A03011F4F0DEF6CF1DD05C
:10060400EA93A091000329DFE0910003E51521F0AE
:1006140050900003A52DFADE10D0A82DB0E0EA1703
:10062400FB0721F00AD08E2EA82DDEDED6CFFFCF19
:10063400F0E0EB5FFC4FE0810895E0910103A4E654
:10064400EA9FF001DF01EFEFF0E00E941F0408953C
:10065400552342F4503811F4E0FF04C03196691F69
:10066400791F6BF050E8572711F45F9373C05F3F15
:1006740031F0660F000C57956795752F08955F93B9
:1006840000200AF073C06CC050E8192E1522880FA0
:10069400991F9527550F879550E8072E0522660F59
:1006A400771F7527550F67950895689401C0E894DE
:1006B4005F93F2DF703818F07F3F08F44BC056E1C7
:1006C400571BAAF4519558300EF4593030F0EFEF1F
:1006D400FFEF6FEF7FE777F91AC077275523B9F05B
:1006E400EE0FFF1F661F771F5A95D1F710C07727AB
:1006F400583028F0EF2FF62F672F5850F9CF552395
:1007040031F076956795F795E7955A95D1F70020DE
:100714000AF480D05F910895689401C0E8943097FA
:1007240060407040B1F0002426F0772312F4009466
:1007340071D0172E7EE1112032F07A95EE0FFF1F53
:10074400661F111CF9CFEF2FF62F612D5F938ADFFF
:100754005F910895EE27FF27662777275F91089515
:10076400EFEFFFEF6FE77FEF5F910895EFEFFFEF9C
:100774006FE77FE75F9108955F9386DF703851F3E9
:10078400903841F301240894791F23F41CF30020CA
:100794003AF3ECCF0F921F932F933F934F9311276C
:1007A40022279927689FA0018F9F302D410D591F43
:1007B4006B9F300D411D591F8E9F27D0BF9F25D0A1
:1007C4006A9F23D0BE9F1DD0AF9F1BD0AE9F110D3B
:1007D400291F391F491F591FE32FF42F652F522F4B
:1007E4004F913F912F911F910F9066232AF0550F3F
:1007F400EE1FFF1F661F02C073954BF229DF5F9146
:100804000895100D211D391F02C0200D311D491FEF
:10081400591F0895F09560957095E195FF4F6F4FBE
:100824007F4F0895EE0FFF1FEE0FFF1F0895BA2F9D
:10083400BB0FBB0B8B2F9B2F08950024112490E139
:10084400AA0FBB1F001C111C0E1A1F0A18F40E0E4F
:100854001F1E01C0A1609A9599F7FD01D00108956A
:100864000590159065917491F0010895689401C004
:10087400E89401D054DF182E862F612D192E972F5E
:10088400712D1B2EBF2FF12D1A2EAE2FE12D0895A1
:00000001FF